{
  "_format": "hh-sol-artifact-1",
  "contractName": "MyEpicNFT",
  "sourceName": "contracts/MyEpicNFT.sol",
  "abi": [
    {
      "inputs": [],
      "stateMutability": "nonpayable",
      "type": "constructor"
    },
    {
      "anonymous": false,
      "inputs": [
        {
          "indexed": true,
          "internalType": "address",
          "name": "owner",
          "type": "address"
        },
        {
          "indexed": true,
          "internalType": "address",
          "name": "approved",
          "type": "address"
        },
        {
          "indexed": true,
          "internalType": "uint256",
          "name": "tokenId",
          "type": "uint256"
        }
      ],
      "name": "Approval",
      "type": "event"
    },
    {
      "anonymous": false,
      "inputs": [
        {
          "indexed": true,
          "internalType": "address",
          "name": "owner",
          "type": "address"
        },
        {
          "indexed": true,
          "internalType": "address",
          "name": "operator",
          "type": "address"
        },
        {
          "indexed": false,
          "internalType": "bool",
          "name": "approved",
          "type": "bool"
        }
      ],
      "name": "ApprovalForAll",
      "type": "event"
    },
    {
      "anonymous": false,
      "inputs": [
        {
          "indexed": false,
          "internalType": "uint256",
          "name": "tokenId",
          "type": "uint256"
        }
      ],
      "name": "CurrentTokenId",
      "type": "event"
    },
    {
      "anonymous": false,
      "inputs": [
        {
          "indexed": false,
          "internalType": "address",
          "name": "sender",
          "type": "address"
        },
        {
          "indexed": false,
          "internalType": "uint256",
          "name": "tokenId",
          "type": "uint256"
        }
      ],
      "name": "NewEpicNFTMinted",
      "type": "event"
    },
    {
      "anonymous": false,
      "inputs": [
        {
          "indexed": true,
          "internalType": "address",
          "name": "from",
          "type": "address"
        },
        {
          "indexed": true,
          "internalType": "address",
          "name": "to",
          "type": "address"
        },
        {
          "indexed": true,
          "internalType": "uint256",
          "name": "tokenId",
          "type": "uint256"
        }
      ],
      "name": "Transfer",
      "type": "event"
    },
    {
      "inputs": [
        {
          "internalType": "address",
          "name": "to",
          "type": "address"
        },
        {
          "internalType": "uint256",
          "name": "tokenId",
          "type": "uint256"
        }
      ],
      "name": "approve",
      "outputs": [],
      "stateMutability": "nonpayable",
      "type": "function"
    },
    {
      "inputs": [
        {
          "internalType": "address",
          "name": "owner",
          "type": "address"
        }
      ],
      "name": "balanceOf",
      "outputs": [
        {
          "internalType": "uint256",
          "name": "",
          "type": "uint256"
        }
      ],
      "stateMutability": "view",
      "type": "function"
    },
    {
      "inputs": [
        {
          "internalType": "uint256",
          "name": "tokenId",
          "type": "uint256"
        }
      ],
      "name": "getApproved",
      "outputs": [
        {
          "internalType": "address",
          "name": "",
          "type": "address"
        }
      ],
      "stateMutability": "view",
      "type": "function"
    },
    {
      "inputs": [],
      "name": "getMintCount",
      "outputs": [
        {
          "internalType": "uint256",
          "name": "",
          "type": "uint256"
        }
      ],
      "stateMutability": "view",
      "type": "function"
    },
    {
      "inputs": [
        {
          "internalType": "address",
          "name": "owner",
          "type": "address"
        },
        {
          "internalType": "address",
          "name": "operator",
          "type": "address"
        }
      ],
      "name": "isApprovedForAll",
      "outputs": [
        {
          "internalType": "bool",
          "name": "",
          "type": "bool"
        }
      ],
      "stateMutability": "view",
      "type": "function"
    },
    {
      "inputs": [],
      "name": "makeAnEpicNFT",
      "outputs": [],
      "stateMutability": "nonpayable",
      "type": "function"
    },
    {
      "inputs": [],
      "name": "name",
      "outputs": [
        {
          "internalType": "string",
          "name": "",
          "type": "string"
        }
      ],
      "stateMutability": "view",
      "type": "function"
    },
    {
      "inputs": [
        {
          "internalType": "uint256",
          "name": "tokenId",
          "type": "uint256"
        }
      ],
      "name": "ownerOf",
      "outputs": [
        {
          "internalType": "address",
          "name": "",
          "type": "address"
        }
      ],
      "stateMutability": "view",
      "type": "function"
    },
    {
      "inputs": [
        {
          "internalType": "address",
          "name": "from",
          "type": "address"
        },
        {
          "internalType": "address",
          "name": "to",
          "type": "address"
        },
        {
          "internalType": "uint256",
          "name": "tokenId",
          "type": "uint256"
        }
      ],
      "name": "safeTransferFrom",
      "outputs": [],
      "stateMutability": "nonpayable",
      "type": "function"
    },
    {
      "inputs": [
        {
          "internalType": "address",
          "name": "from",
          "type": "address"
        },
        {
          "internalType": "address",
          "name": "to",
          "type": "address"
        },
        {
          "internalType": "uint256",
          "name": "tokenId",
          "type": "uint256"
        },
        {
          "internalType": "bytes",
          "name": "_data",
          "type": "bytes"
        }
      ],
      "name": "safeTransferFrom",
      "outputs": [],
      "stateMutability": "nonpayable",
      "type": "function"
    },
    {
      "inputs": [
        {
          "internalType": "address",
          "name": "operator",
          "type": "address"
        },
        {
          "internalType": "bool",
          "name": "approved",
          "type": "bool"
        }
      ],
      "name": "setApprovalForAll",
      "outputs": [],
      "stateMutability": "nonpayable",
      "type": "function"
    },
    {
      "inputs": [
        {
          "internalType": "bytes4",
          "name": "interfaceId",
          "type": "bytes4"
        }
      ],
      "name": "supportsInterface",
      "outputs": [
        {
          "internalType": "bool",
          "name": "",
          "type": "bool"
        }
      ],
      "stateMutability": "view",
      "type": "function"
    },
    {
      "inputs": [],
      "name": "symbol",
      "outputs": [
        {
          "internalType": "string",
          "name": "",
          "type": "string"
        }
      ],
      "stateMutability": "view",
      "type": "function"
    },
    {
      "inputs": [
        {
          "internalType": "uint256",
          "name": "tokenId",
          "type": "uint256"
        }
      ],
      "name": "tokenURI",
      "outputs": [
        {
          "internalType": "string",
          "name": "",
          "type": "string"
        }
      ],
      "stateMutability": "view",
      "type": "function"
    },
    {
      "inputs": [
        {
          "internalType": "address",
          "name": "from",
          "type": "address"
        },
        {
          "internalType": "address",
          "name": "to",
          "type": "address"
        },
        {
          "internalType": "uint256",
          "name": "tokenId",
          "type": "uint256"
        }
      ],
      "name": "transferFrom",
      "outputs": [],
      "stateMutability": "nonpayable",
      "type": "function"
    }
  ],
  "bytecode": "0x60806040526040518060a001604052806062815260200162005eb3606291396008908051906020019062000035929190620019e4565b506040518060800160405280604f815260200162005f4f604f91396009908051906020019062000067929190620019e4565b506040518060600160405280603a815260200162005f15603a9139600a908051906020019062000099929190620019e4565b5060405180608001604052806053815260200162005f9e60539139600b9080519060200190620000cb929190620019e4565b506040518060400160405280600781526020017f3c2f746578743e00000000000000000000000000000000000000000000000000815250600c908051906020019062000119929190620019e4565b506040518060400160405280600681526020017f3c2f7376673e0000000000000000000000000000000000000000000000000000815250600d908051906020019062000167929190620019e4565b506040518061072001604052806040518060400160405280600781526020017f526567756c75730000000000000000000000000000000000000000000000000081525081526020016040518060400160405280600681526020017f536972697573000000000000000000000000000000000000000000000000000081525081526020016040518060400160405280600881526020017f4c6176656e64657200000000000000000000000000000000000000000000000081525081526020016040518060400160405280600381526020017f43686f000000000000000000000000000000000000000000000000000000000081525081526020016040518060400160405280600781526020017f56696e63656e740000000000000000000000000000000000000000000000000081525081526020016040518060400160405280600981526020017f42617274656d697573000000000000000000000000000000000000000000000081525081526020016040518060400160405280600581526020017f466c65757200000000000000000000000000000000000000000000000000000081525081526020016040518060400160405280600681526020017f436564726963000000000000000000000000000000000000000000000000000081525081526020016040518060400160405280600a81526020017f416c626572666f7274680000000000000000000000000000000000000000000081525081526020016040518060400160405280600581526020017f416c62757300000000000000000000000000000000000000000000000000000081525081526020016040518060400160405280600681526020017f4475646c6579000000000000000000000000000000000000000000000000000081525081526020016040518060400160405280600781526020017f506574756e69610000000000000000000000000000000000000000000000000081525081526020016040518060400160405280600681526020017f5665726e6f6e000000000000000000000000000000000000000000000000000081525081526020016040518060400160405280600581526020017f417267757300000000000000000000000000000000000000000000000000000081525081526020016040518060400160405280600681526020017f5365616d7573000000000000000000000000000000000000000000000000000081525081526020016040518060400160405280600781526020017f4e69636f6c61730000000000000000000000000000000000000000000000000081525081526020016040518060400160405280600981526020017f436f726e656c697573000000000000000000000000000000000000000000000081525081526020016040518060400160405280600581526020017f476f796c6500000000000000000000000000000000000000000000000000000081525081526020016040518060400160405280600781526020017f477265676f72790000000000000000000000000000000000000000000000000081525081526020016040518060400160405280600881526020017f4865726d696f6e6500000000000000000000000000000000000000000000000081525081526020016040518060400160405280600681526020017f527562657573000000000000000000000000000000000000000000000000000081525081526020016040518060400160405280600481526020017f49676f720000000000000000000000000000000000000000000000000000000081525081526020016040518060400160405280600681526020017f56696b746f72000000000000000000000000000000000000000000000000000081525081526020016040518060400160405280600981526020017f42656c6c6174726978000000000000000000000000000000000000000000000081525081526020016040518060400160405280600581526020017f416c69636500000000000000000000000000000000000000000000000000000081525081526020016040518060400160405280600581526020017f4672616e6b00000000000000000000000000000000000000000000000000000081525081526020016040518060400160405280600781526020017f4e6576696c6c650000000000000000000000000000000000000000000000000081525081526020016040518060400160405280600481526020017f4c756e610000000000000000000000000000000000000000000000000000000081525081526020016040518060400160405280600b81526020017f58656e6f7068696c69757300000000000000000000000000000000000000000081525081526020016040518060400160405280600581526020017f52656d757300000000000000000000000000000000000000000000000000000081525081526020016040518060400160405280600581526020017f447261636f00000000000000000000000000000000000000000000000000000081525081526020016040518060400160405280600681526020017f4c7563697573000000000000000000000000000000000000000000000000000081525081526020016040518060400160405280600881526020017f4e6172636973736100000000000000000000000000000000000000000000000081525081526020016040518060400160405280600681526020017f4f6c796d7065000000000000000000000000000000000000000000000000000081525081526020016040518060400160405280600781526020017f4d696e657276610000000000000000000000000000000000000000000000000081525081526020016040518060400160405280600781526020017f416c6173746f720000000000000000000000000000000000000000000000000081525081526020016040518060400160405280600581526020017f506574657200000000000000000000000000000000000000000000000000000081525081526020016040518060400160405280600581526020017f486172727900000000000000000000000000000000000000000000000000000081525081526020016040518060400160405280600581526020017f4a616d657300000000000000000000000000000000000000000000000000000081525081526020016040518060400160405280600481526020017f4c696c790000000000000000000000000000000000000000000000000000000081525081526020016040518060400160405280600881526020017f51756972696e757300000000000000000000000000000000000000000000000081525081526020016040518060400160405280600381526020017f546f6d000000000000000000000000000000000000000000000000000000000081525081526020016040518060400160405280600481526020017f4d6172790000000000000000000000000000000000000000000000000000000081525081526020016040518060400160405280600481526020017f4c6f72640000000000000000000000000000000000000000000000000000000081525081526020016040518060400160405280600481526020017f526974610000000000000000000000000000000000000000000000000000000081525081526020016040518060400160405280600781526020017f536576657275730000000000000000000000000000000000000000000000000081525081526020016040518060400160405280600a81526020017f4e796d706861646f72610000000000000000000000000000000000000000000081525081526020016040518060400160405280600781526020017f446f6c6f7265730000000000000000000000000000000000000000000000000081525081526020016040518060400160405280600681526020017f417274687572000000000000000000000000000000000000000000000000000081525081526020016040518060400160405280600481526020017f42696c6c0000000000000000000000000000000000000000000000000000000081525081526020016040518060400160405280600781526020017f436861726c69650000000000000000000000000000000000000000000000000081525081526020016040518060400160405280600481526020017f467265640000000000000000000000000000000000000000000000000000000081525081526020016040518060400160405280600681526020017f47656f726765000000000000000000000000000000000000000000000000000081525081526020016040518060400160405280600581526020017f47696e6e7900000000000000000000000000000000000000000000000000000081525081526020016040518060400160405280600581526020017f4d6f6c6c7900000000000000000000000000000000000000000000000000000081525081526020016040518060400160405280600581526020017f506572637900000000000000000000000000000000000000000000000000000081525081526020016040518060400160405280600381526020017f526f6e0000000000000000000000000000000000000000000000000000000000815250815250600e90603962000ea792919062001a75565b506040518061048001604052806040518060400160405280600581526020017f426c61636b00000000000000000000000000000000000000000000000000000081525081526020016040518060400160405280600581526020017f42726f776e00000000000000000000000000000000000000000000000000000081525081526020016040518060400160405280600581526020017f4368616e6700000000000000000000000000000000000000000000000000000081525081526020016040518060400160405280600681526020017f437261626265000000000000000000000000000000000000000000000000000081525081526020016040518060400160405280600681526020017f43726f756368000000000000000000000000000000000000000000000000000081525081526020016040518060400160405280600881526020017f44656c61636f757200000000000000000000000000000000000000000000000081525081526020016040518060400160405280600781526020017f446967676f72790000000000000000000000000000000000000000000000000081525081526020016040518060400160405280600a81526020017f44756d626c65646f72650000000000000000000000000000000000000000000081525081526020016040518060400160405280600781526020017f447572736c65790000000000000000000000000000000000000000000000000081525081526020016040518060400160405280600581526020017f46696c636800000000000000000000000000000000000000000000000000000081525081526020016040518060400160405280600881526020017f46696e6e6967616e00000000000000000000000000000000000000000000000081525081526020016040518060400160405280600681526020017f466c616d656c000000000000000000000000000000000000000000000000000081525081526020016040518060400160405280600581526020017f467564676500000000000000000000000000000000000000000000000000000081525081526020016040518060400160405280600581526020017f476f796c6500000000000000000000000000000000000000000000000000000081525081526020016040518060400160405280600781526020017f4772616e6765720000000000000000000000000000000000000000000000000081525081526020016040518060400160405280600681526020017f486167726964000000000000000000000000000000000000000000000000000081525081526020016040518060400160405280600981526020017f4b61726b61726f6666000000000000000000000000000000000000000000000081525081526020016040518060400160405280600481526020017f4b72756d0000000000000000000000000000000000000000000000000000000081525081526020016040518060400160405280600981526020017f4c65737472616e6765000000000000000000000000000000000000000000000081525081526020016040518060400160405280600a81526020017f4c6f6e67626f74746f6d0000000000000000000000000000000000000000000081525081526020016040518060400160405280600881526020017f4c6f7665676f6f6400000000000000000000000000000000000000000000000081525081526020016040518060400160405280600581526020017f4c7570696e00000000000000000000000000000000000000000000000000000081525081526020016040518060400160405280600681526020017f4d616c666f79000000000000000000000000000000000000000000000000000081525081526020016040518060400160405280600681526020017f4d6178696d65000000000000000000000000000000000000000000000000000081525081526020016040518060400160405280600a81526020017f4d63476f6e6167616c6c0000000000000000000000000000000000000000000081525081526020016040518060400160405280600581526020017f4d6f6f647900000000000000000000000000000000000000000000000000000081525081526020016040518060400160405280600981526020017f506574746967726577000000000000000000000000000000000000000000000081525081526020016040518060400160405280600681526020017f506f74746572000000000000000000000000000000000000000000000000000081525081526020016040518060400160405280600881526020017f5175697272656c6c00000000000000000000000000000000000000000000000081525081526020016040518060400160405280600681526020017f526964646c65000000000000000000000000000000000000000000000000000081525081526020016040518060400160405280600981526020017f566f6c64656d6f7274000000000000000000000000000000000000000000000081525081526020016040518060400160405280600781526020017f536b65657465720000000000000000000000000000000000000000000000000081525081526020016040518060400160405280600581526020017f536e61706500000000000000000000000000000000000000000000000000000081525081526020016040518060400160405280600581526020017f546f6e6b7300000000000000000000000000000000000000000000000000000081525081526020016040518060400160405280600881526020017f556d62726964676500000000000000000000000000000000000000000000000081525081526020016040518060400160405280600781526020017f576561736c657900000000000000000000000000000000000000000000000000815250815250600f9060246200171092919062001adc565b5060405180608001604052806040518060400160405280600a81526020017f4772796666696e646f720000000000000000000000000000000000000000000081525081526020016040518060400160405280600a81526020017f487566666c65707566660000000000000000000000000000000000000000000081525081526020016040518060400160405280600981526020017f526176656e636c6177000000000000000000000000000000000000000000000081525081526020016040518060400160405280600981526020017f536c7974686572696e000000000000000000000000000000000000000000000081525081525060109060046200181892919062001b43565b503480156200182657600080fd5b506040518060400160405280600981526020017f57697a6172644e465400000000000000000000000000000000000000000000008152506040518060400160405280600681526020017f57495a41524400000000000000000000000000000000000000000000000000008152508160009080519060200190620018ab929190620019e4565b508060019080519060200190620018c4929190620019e4565b505050620019126040518060400160405280601e81526020017f54686973206973206d79204e465420636f6e74726163742e20576f61682100008152506200191860201b62000e3a1760201c565b62001d64565b620019b8816040516024016200192f919062001c78565b6040516020818303038152906040527f41304fac000000000000000000000000000000000000000000000000000000007bffffffffffffffffffffffffffffffffffffffffffffffffffffffff19166020820180517bffffffffffffffffffffffffffffffffffffffffffffffffffffffff8381831617835250505050620019bb60201b60201c565b50565b60008151905060006a636f6e736f6c652e6c6f679050602083016000808483855afa5050505050565b828054620019f29062001cee565b90600052602060002090601f01602090048101928262001a16576000855562001a62565b82601f1062001a3157805160ff191683800117855562001a62565b8280016001018555821562001a62579182015b8281111562001a6157825182559160200191906001019062001a44565b5b50905062001a71919062001baa565b5090565b82805482825590600052602060002090810192821562001ac9579160200282015b8281111562001ac857825182908051906020019062001ab7929190620019e4565b509160200191906001019062001a96565b5b50905062001ad8919062001bc9565b5090565b82805482825590600052602060002090810192821562001b30579160200282015b8281111562001b2f57825182908051906020019062001b1e929190620019e4565b509160200191906001019062001afd565b5b50905062001b3f919062001bc9565b5090565b82805482825590600052602060002090810192821562001b97579160200282015b8281111562001b9657825182908051906020019062001b85929190620019e4565b509160200191906001019062001b64565b5b50905062001ba6919062001bc9565b5090565b5b8082111562001bc557600081600090555060010162001bab565b5090565b5b8082111562001bed576000818162001be3919062001bf1565b5060010162001bca565b5090565b50805462001bff9062001cee565b6000825580601f1062001c13575062001c34565b601f01602090049060005260206000209081019062001c33919062001baa565b5b50565b600062001c448262001c9c565b62001c50818562001ca7565b935062001c6281856020860162001cb8565b62001c6d8162001d53565b840191505092915050565b6000602082019050818103600083015262001c94818462001c37565b905092915050565b600081519050919050565b600082825260208201905092915050565b60005b8381101562001cd857808201518184015260208101905062001cbb565b8381111562001ce8576000848401525b50505050565b6000600282049050600182168062001d0757607f821691505b6020821081141562001d1e5762001d1d62001d24565b5b50919050565b7f4e487b7100000000000000000000000000000000000000000000000000000000600052602260045260246000fd5b6000601f19601f8301169050919050565b61413f8062001d746000396000f3fe608060405234801561001057600080fd5b50600436106100f55760003560e01c806370a0823111610097578063b88d4fde11610066578063b88d4fde14610284578063c87b56dd146102a0578063de9d132f146102d0578063e985e9c5146102da576100f5565b806370a08231146101fc5780638fc3b5491461022c57806395d89b411461024a578063a22cb46514610268576100f5565b8063095ea7b3116100d3578063095ea7b31461017857806323b872dd1461019457806342842e0e146101b05780636352211e146101cc576100f5565b806301ffc9a7146100fa57806306fdde031461012a578063081812fc14610148575b600080fd5b610114600480360381019061010f9190612751565b61030a565b6040516101219190613103565b60405180910390f35b6101326103ec565b60405161013f919061311e565b60405180910390f35b610162600480360381019061015d91906127a3565b61047e565b60405161016f9190613073565b60405180910390f35b610192600480360381019061018d9190612715565b610503565b005b6101ae60048036038101906101a9919061260f565b61061b565b005b6101ca60048036038101906101c5919061260f565b61067b565b005b6101e660048036038101906101e191906127a3565b61069b565b6040516101f39190613073565b60405180910390f35b610216600480360381019061021191906125aa565b61074d565b604051610223919061337e565b60405180910390f35b610234610805565b604051610241919061337e565b60405180910390f35b610252610816565b60405161025f919061311e565b60405180910390f35b610282600480360381019061027d91906126d9565b6108a8565b005b61029e6004803603810190610299919061265e565b610a29565b005b6102ba60048036038101906102b591906127a3565b610a8b565b6040516102c7919061311e565b60405180910390f35b6102d8610bdd565b005b6102f460048036038101906102ef91906125d3565b610da6565b6040516103019190613103565b60405180910390f35b60007f80ac58cd000000000000000000000000000000000000000000000000000000007bffffffffffffffffffffffffffffffffffffffffffffffffffffffff1916827bffffffffffffffffffffffffffffffffffffffffffffffffffffffff191614806103d557507f5b5e139f000000000000000000000000000000000000000000000000000000007bffffffffffffffffffffffffffffffffffffffffffffffffffffffff1916827bffffffffffffffffffffffffffffffffffffffffffffffffffffffff1916145b806103e557506103e482610ed3565b5b9050919050565b6060600080546103fb90613680565b80601f016020809104026020016040519081016040528092919081815260200182805461042790613680565b80156104745780601f1061044957610100808354040283529160200191610474565b820191906000526020600020905b81548152906001019060200180831161045757829003601f168201915b5050505050905090565b600061048982610f3d565b6104c8576040517f08c379a00000000000000000000000000000000000000000000000000000000081526004016104bf906132de565b60405180910390fd5b6004600083815260200190815260200160002060009054906101000a900473ffffffffffffffffffffffffffffffffffffffff169050919050565b600061050e8261069b565b90508073ffffffffffffffffffffffffffffffffffffffff168373ffffffffffffffffffffffffffffffffffffffff16141561057f576040517f08c379a00000000000000000000000000000000000000000000000000000000081526004016105769061333e565b60405180910390fd5b8073ffffffffffffffffffffffffffffffffffffffff1661059e610fa9565b73ffffffffffffffffffffffffffffffffffffffff1614806105cd57506105cc816105c7610fa9565b610da6565b5b61060c576040517f08c379a00000000000000000000000000000000000000000000000000000000081526004016106039061321e565b60405180910390fd5b6106168383610fb1565b505050565b61062c610626610fa9565b8261106a565b61066b576040517f08c379a00000000000000000000000000000000000000000000000000000000081526004016106629061335e565b60405180910390fd5b610676838383611148565b505050565b61069683838360405180602001604052806000815250610a29565b505050565b6000806002600084815260200190815260200160002060009054906101000a900473ffffffffffffffffffffffffffffffffffffffff169050600073ffffffffffffffffffffffffffffffffffffffff168173ffffffffffffffffffffffffffffffffffffffff161415610744576040517f08c379a000000000000000000000000000000000000000000000000000000000815260040161073b9061325e565b60405180910390fd5b80915050919050565b60008073ffffffffffffffffffffffffffffffffffffffff168273ffffffffffffffffffffffffffffffffffffffff1614156107be576040517f08c379a00000000000000000000000000000000000000000000000000000000081526004016107b59061323e565b60405180910390fd5b600360008373ffffffffffffffffffffffffffffffffffffffff1673ffffffffffffffffffffffffffffffffffffffff168152602001908152602001600020549050919050565b600061081160076113a4565b905090565b60606001805461082590613680565b80601f016020809104026020016040519081016040528092919081815260200182805461085190613680565b801561089e5780601f106108735761010080835404028352916020019161089e565b820191906000526020600020905b81548152906001019060200180831161088157829003601f168201915b5050505050905090565b6108b0610fa9565b73ffffffffffffffffffffffffffffffffffffffff168273ffffffffffffffffffffffffffffffffffffffff16141561091e576040517f08c379a0000000000000000000000000000000000000000000000000000000008152600401610915906131de565b60405180910390fd5b806005600061092b610fa9565b73ffffffffffffffffffffffffffffffffffffffff1673ffffffffffffffffffffffffffffffffffffffff16815260200190815260200160002060008473ffffffffffffffffffffffffffffffffffffffff1673ffffffffffffffffffffffffffffffffffffffff16815260200190815260200160002060006101000a81548160ff0219169083151502179055508173ffffffffffffffffffffffffffffffffffffffff166109d8610fa9565b73ffffffffffffffffffffffffffffffffffffffff167f17307eab39ab6107e8899845ad3d59bd9653f200f220920489ca2b5937696c3183604051610a1d9190613103565b60405180910390a35050565b610a3a610a34610fa9565b8361106a565b610a79576040517f08c379a0000000000000000000000000000000000000000000000000000000008152600401610a709061335e565b60405180910390fd5b610a85848484846113b2565b50505050565b6060610a9682610f3d565b610ad5576040517f08c379a0000000000000000000000000000000000000000000000000000000008152600401610acc906132be565b60405180910390fd5b6000600660008481526020019081526020016000208054610af590613680565b80601f0160208091040260200160405190810160405280929190818152602001828054610b2190613680565b8015610b6e5780601f10610b4357610100808354040283529160200191610b6e565b820191906000526020600020905b815481529060010190602001808311610b5157829003601f168201915b505050505090506000610b7f61140e565b9050600081511415610b95578192505050610bd8565b600082511115610bca578082604051602001610bb2929190612dd8565b60405160208183030381529060405292505050610bd8565b610bd384611425565b925050505b919050565b6000610be76114cc565b90506000610bf48261151e565b90506000610c2c8384610c0685611564565b604051602001610c1893929190612f81565b604051602081830303815290604052611564565b9050600081604051602001610c419190613000565b6040516020818303038152906040529050610c906040518060400160405280601581526020017f0a2d2d2d2d2d2d2d2d2d2d2d2d2d2d2d2d2d2d2d2d0000000000000000000000815250610e3a565b610c9981610e3a565b610cd76040518060400160405280601581526020017f2d2d2d2d2d2d2d2d2d2d2d2d2d2d2d2d2d2d2d2d0a0000000000000000000000815250610e3a565b6000610ce360076113a4565b9050610cef3382611722565b610cf98183611740565b610d1c6040518060600160405280602581526020016140a56025913982336117b4565b610d266007611853565b7febb98688741ffa4c7589bf325de30cf7becb63de567842e1ccdb6cb949fdc82c3382604051610d579291906130da565b60405180910390a17fa5c00b4404a298ed11ecf24b4631b479cfabafa02cc54cfecdeef959fcbc2c99610d8a60076113a4565b604051610d97919061337e565b60405180910390a15050505050565b6000600560008473ffffffffffffffffffffffffffffffffffffffff1673ffffffffffffffffffffffffffffffffffffffff16815260200190815260200160002060008373ffffffffffffffffffffffffffffffffffffffff1673ffffffffffffffffffffffffffffffffffffffff16815260200190815260200160002060009054906101000a900460ff16905092915050565b610ed081604051602401610e4e919061311e565b6040516020818303038152906040527f41304fac000000000000000000000000000000000000000000000000000000007bffffffffffffffffffffffffffffffffffffffffffffffffffffffff19166020820180517bffffffffffffffffffffffffffffffffffffffffffffffffffffffff8381831617835250505050611869565b50565b60007f01ffc9a7000000000000000000000000000000000000000000000000000000007bffffffffffffffffffffffffffffffffffffffffffffffffffffffff1916827bffffffffffffffffffffffffffffffffffffffffffffffffffffffff1916149050919050565b60008073ffffffffffffffffffffffffffffffffffffffff166002600084815260200190815260200160002060009054906101000a900473ffffffffffffffffffffffffffffffffffffffff1673ffffffffffffffffffffffffffffffffffffffff1614159050919050565b600033905090565b816004600083815260200190815260200160002060006101000a81548173ffffffffffffffffffffffffffffffffffffffff021916908373ffffffffffffffffffffffffffffffffffffffff160217905550808273ffffffffffffffffffffffffffffffffffffffff166110248361069b565b73ffffffffffffffffffffffffffffffffffffffff167f8c5be1e5ebec7d5bd14f71427d1e84f3dd0314c0f7b2291e5b200ac8c7c3b92560405160405180910390a45050565b600061107582610f3d565b6110b4576040517f08c379a00000000000000000000000000000000000000000000000000000000081526004016110ab906131fe565b60405180910390fd5b60006110bf8361069b565b90508073ffffffffffffffffffffffffffffffffffffffff168473ffffffffffffffffffffffffffffffffffffffff16148061112e57508373ffffffffffffffffffffffffffffffffffffffff166111168461047e565b73ffffffffffffffffffffffffffffffffffffffff16145b8061113f575061113e8185610da6565b5b91505092915050565b8273ffffffffffffffffffffffffffffffffffffffff166111688261069b565b73ffffffffffffffffffffffffffffffffffffffff16146111be576040517f08c379a00000000000000000000000000000000000000000000000000000000081526004016111b5906132fe565b60405180910390fd5b600073ffffffffffffffffffffffffffffffffffffffff168273ffffffffffffffffffffffffffffffffffffffff16141561122e576040517f08c379a0000000000000000000000000000000000000000000000000000000008152600401611225906131be565b60405180910390fd5b611239838383611892565b611244600082610fb1565b6001600360008573ffffffffffffffffffffffffffffffffffffffff1673ffffffffffffffffffffffffffffffffffffffff1681526020019081526020016000206000828254611294919061355f565b925050819055506001600360008473ffffffffffffffffffffffffffffffffffffffff1673ffffffffffffffffffffffffffffffffffffffff16815260200190815260200160002060008282546112eb9190613447565b92505081905550816002600083815260200190815260200160002060006101000a81548173ffffffffffffffffffffffffffffffffffffffff021916908373ffffffffffffffffffffffffffffffffffffffff160217905550808273ffffffffffffffffffffffffffffffffffffffff168473ffffffffffffffffffffffffffffffffffffffff167fddf252ad1be2c89b69c2b068fc378daa952ba7f163c4a11628f55a4df523b3ef60405160405180910390a4505050565b600081600001549050919050565b6113bd848484611148565b6113c984848484611897565b611408576040517f08c379a00000000000000000000000000000000000000000000000000000000081526004016113ff9061317e565b60405180910390fd5b50505050565b606060405180602001604052806000815250905090565b606061143082610f3d565b61146f576040517f08c379a00000000000000000000000000000000000000000000000000000000081526004016114669061331e565b60405180910390fd5b600061147961140e565b9050600081511161149957604051806020016040528060008152506114c4565b806114a384611a2e565b6040516020016114b4929190612dd8565b6040516020818303038152906040525b915050919050565b606060006114d8611bdb565b905060006114e4611cf7565b905060006114f0611e13565b905082828260405160200161150793929190612dfc565b604051602081830303815290604052935050505090565b6060600861152a611f2f565b6009600a61153786611fd2565b600d60405160200161154e96959493929190612e74565b6040516020818303038152906040529050919050565b6060600082519050600081141561158d576040518060200160405280600081525091505061171d565b6000600360028361159e9190613447565b6115a891906134d4565b60046115b49190613505565b905060006020826115c59190613447565b67ffffffffffffffff811115611604577f4e487b7100000000000000000000000000000000000000000000000000000000600052604160045260246000fd5b6040519080825280601f01601f1916602001820160405280156116365781602001600182028036833780820191505090505b50905060006040518060600160405280604081526020016140ca604091399050600181016020830160005b868110156116da5760038101905062ffffff818a015116603f8160121c168401518060081b905060ff603f83600c1c1686015116810190508060081b905060ff603f8360061c1686015116810190508060081b905060ff603f831686015116810190508060e01b90508084526004840193505050611661565b5060038606600181146116f457600281146117045761170f565b613d3d60f01b600283035261170f565b603d60f81b60018303525b508484525050819450505050505b919050565b61173c828260405180602001604052806000815250612001565b5050565b61174982610f3d565b611788576040517f08c379a000000000000000000000000000000000000000000000000000000000815260040161177f9061327e565b60405180910390fd5b806006600084815260200190815260200160002090805190602001906117af929190612436565b505050565b61184e8383836040516024016117cc93929190613140565b6040516020818303038152906040527fe3849f79000000000000000000000000000000000000000000000000000000007bffffffffffffffffffffffffffffffffffffffffffffffffffffffff19166020820180517bffffffffffffffffffffffffffffffffffffffffffffffffffffffff8381831617835250505050611869565b505050565b6001816000016000828254019250508190555050565b60008151905060006a636f6e736f6c652e6c6f679050602083016000808483855afa5050505050565b505050565b60006118b88473ffffffffffffffffffffffffffffffffffffffff1661205c565b15611a21578373ffffffffffffffffffffffffffffffffffffffff1663150b7a026118e1610fa9565b8786866040518563ffffffff1660e01b8152600401611903949392919061308e565b602060405180830381600087803b15801561191d57600080fd5b505af192505050801561194e57506040513d601f19601f8201168201806040525081019061194b919061277a565b60015b6119d1573d806000811461197e576040519150601f19603f3d011682016040523d82523d6000602084013e611983565b606091505b506000815114156119c9576040517f08c379a00000000000000000000000000000000000000000000000000000000081526004016119c09061317e565b60405180910390fd5b805181602001fd5b63150b7a0260e01b7bffffffffffffffffffffffffffffffffffffffffffffffffffffffff1916817bffffffffffffffffffffffffffffffffffffffffffffffffffffffff191614915050611a26565b600190505b949350505050565b60606000821415611a76576040518060400160405280600181526020017f30000000000000000000000000000000000000000000000000000000000000008152509050611bd6565b600082905060005b60008214611aa8578080611a91906136e3565b915050600a82611aa191906134d4565b9150611a7e565b60008167ffffffffffffffff811115611aea577f4e487b7100000000000000000000000000000000000000000000000000000000600052604160045260246000fd5b6040519080825280601f01601f191660200182016040528015611b1c5781602001600182028036833780820191505090505b5090505b60008514611bcf57600182611b35919061355f565b9150600a85611b44919061372c565b6030611b509190613447565b60f81b818381518110611b8c577f4e487b7100000000000000000000000000000000000000000000000000000000600052603260045260246000fd5b60200101907effffffffffffffffffffffffffffffffffffffffffffffffffffffffffffff1916908160001a905350600a85611bc891906134d4565b9450611b20565b8093505050505b919050565b60606000611c0f611beb42611a2e565b604051602001611bfb9190612ecc565b60405160208183030381529060405261206f565b9050600e8054905081611c22919061372c565b9050600e8181548110611c5e577f4e487b7100000000000000000000000000000000000000000000000000000000600052603260045260246000fd5b906000526020600020018054611c7390613680565b80601f0160208091040260200160405190810160405280929190818152602001828054611c9f90613680565b8015611cec5780601f10611cc157610100808354040283529160200191611cec565b820191906000526020600020905b815481529060010190602001808311611ccf57829003601f168201915b505050505091505090565b60606000611d2b611d0742611a2e565b604051602001611d179190613022565b60405160208183030381529060405261206f565b9050600f8054905081611d3e919061372c565b9050600f8181548110611d7a577f4e487b7100000000000000000000000000000000000000000000000000000000600052603260045260246000fd5b906000526020600020018054611d8f90613680565b80601f0160208091040260200160405190810160405280929190818152602001828054611dbb90613680565b8015611e085780601f10611ddd57610100808354040283529160200191611e08565b820191906000526020600020905b815481529060010190602001808311611deb57829003601f168201915b505050505091505090565b60606000611e47611e2342611a2e565b604051602001611e339190612f5f565b60405160208183030381529060405261206f565b905060108054905081611e5a919061372c565b905060108181548110611e96577f4e487b7100000000000000000000000000000000000000000000000000000000600052603260045260246000fd5b906000526020600020018054611eab90613680565b80601f0160208091040260200160405190810160405280929190818152602001828054611ed790613680565b8015611f245780601f10611ef957610100808354040283529160200191611f24565b820191906000526020600020905b815481529060010190602001808311611f0757829003601f168201915b505050505091505090565b6060611f6f6040518060400160405280600181526020017f41000000000000000000000000000000000000000000000000000000000000008152506120a2565b611fad6040518060400160405280600181526020017f42000000000000000000000000000000000000000000000000000000000000008152506120a2565b604051602001611fbe929190612eee565b604051602081830303815290604052905090565b6060600b82600c604051602001611feb93929190612e43565b6040516020818303038152906040529050919050565b61200b838361210a565b6120186000848484611897565b612057576040517f08c379a000000000000000000000000000000000000000000000000000000000815260040161204e9061317e565b60405180910390fd5b505050565b600080823b905060008111915050919050565b6000816040516020016120829190612dc1565b6040516020818303038152906040528051906020012060001c9050919050565b606060006120d8836120b342611a2e565b6040516020016120c4929190613044565b60405160208183030381529060405261206f565b90506120e3816122d8565b6040516020016120f39190612fde565b604051602081830303815290604052915050919050565b600073ffffffffffffffffffffffffffffffffffffffff168273ffffffffffffffffffffffffffffffffffffffff16141561217a576040517f08c379a00000000000000000000000000000000000000000000000000000000081526004016121719061329e565b60405180910390fd5b61218381610f3d565b156121c3576040517f08c379a00000000000000000000000000000000000000000000000000000000081526004016121ba9061319e565b60405180910390fd5b6121cf60008383611892565b6001600360008473ffffffffffffffffffffffffffffffffffffffff1673ffffffffffffffffffffffffffffffffffffffff168152602001908152602001600020600082825461221f9190613447565b92505081905550816002600083815260200190815260200160002060006101000a81548173ffffffffffffffffffffffffffffffffffffffff021916908373ffffffffffffffffffffffffffffffffffffffff160217905550808273ffffffffffffffffffffffffffffffffffffffff16600073ffffffffffffffffffffffffffffffffffffffff167fddf252ad1be2c89b69c2b068fc378daa952ba7f163c4a11628f55a4df523b3ef60405160405180910390a45050565b60606000600667ffffffffffffffff81111561231d577f4e487b7100000000000000000000000000000000000000000000000000000000600052604160045260246000fd5b6040519080825280601f01601f19166020018201604052801561234f5781602001600182028036833780820191505090505b5090506000600f90506000600690505b808061236a90613656565b915050612378828616612402565b60f81b8382815181106123b4577f4e487b7100000000000000000000000000000000000000000000000000000000600052603260045260246000fd5b60200101907effffffffffffffffffffffffffffffffffffffffffffffffffffffffffffff1916908160001a90535060048562ffffff16901c94506000811161235f57829350505050919050565b600060098260ff16116124215760308261241c919061349d565b61242f565b60578261242e919061349d565b5b9050919050565b82805461244290613680565b90600052602060002090601f01602090048101928261246457600085556124ab565b82601f1061247d57805160ff19168380011785556124ab565b828001600101855582156124ab579182015b828111156124aa57825182559160200191906001019061248f565b5b5090506124b891906124bc565b5090565b5b808211156124d55760008160009055506001016124bd565b5090565b60006124ec6124e7846133be565b613399565b90508281526020810184848401111561250457600080fd5b61250f848285613614565b509392505050565b60008135905061252681614048565b92915050565b60008135905061253b8161405f565b92915050565b60008135905061255081614076565b92915050565b60008151905061256581614076565b92915050565b600082601f83011261257c57600080fd5b813561258c8482602086016124d9565b91505092915050565b6000813590506125a48161408d565b92915050565b6000602082840312156125bc57600080fd5b60006125ca84828501612517565b91505092915050565b600080604083850312156125e657600080fd5b60006125f485828601612517565b925050602061260585828601612517565b9150509250929050565b60008060006060848603121561262457600080fd5b600061263286828701612517565b935050602061264386828701612517565b925050604061265486828701612595565b9150509250925092565b6000806000806080858703121561267457600080fd5b600061268287828801612517565b945050602061269387828801612517565b93505060406126a487828801612595565b925050606085013567ffffffffffffffff8111156126c157600080fd5b6126cd8782880161256b565b91505092959194509250565b600080604083850312156126ec57600080fd5b60006126fa85828601612517565b925050602061270b8582860161252c565b9150509250929050565b6000806040838503121561272857600080fd5b600061273685828601612517565b925050602061274785828601612595565b9150509250929050565b60006020828403121561276357600080fd5b600061277184828501612541565b91505092915050565b60006020828403121561278c57600080fd5b600061279a84828501612556565b91505092915050565b6000602082840312156127b557600080fd5b60006127c384828501612595565b91505092915050565b6127d581613593565b82525050565b6127e4816135a5565b82525050565b60006127f582613404565b6127ff818561341a565b935061280f818560208601613623565b61281881613819565b840191505092915050565b600061282e8261340f565b612838818561342b565b9350612848818560208601613623565b61285181613819565b840191505092915050565b60006128678261340f565b612871818561343c565b9350612881818560208601613623565b80840191505092915050565b6000815461289a81613680565b6128a4818661343c565b945060018216600081146128bf57600181146128d057612903565b60ff19831686528186019350612903565b6128d9856133ef565b60005b838110156128fb578154818901526001820191506020810190506128dc565b838801955050505b50505092915050565b600061291960138361343c565b91506129248261382a565b601382019050919050565b600061293c60328361342b565b915061294782613853565b604082019050919050565b600061295f601c8361342b565b915061296a826138a2565b602082019050919050565b600061298260188361343c565b915061298d826138cb565b601882019050919050565b60006129a5600a8361343c565b91506129b0826138f4565b600a82019050919050565b60006129c860248361342b565b91506129d38261391d565b604082019050919050565b60006129eb60198361342b565b91506129f68261396c565b602082019050919050565b6000612a0e602c8361342b565b9150612a1982613995565b604082019050919050565b6000612a3160418361343c565b9150612a3c826139e4565b604182019050919050565b6000612a5460018361343c565b9150612a5f82613a59565b600182019050919050565b6000612a7760388361342b565b9150612a8282613a82565b604082019050919050565b6000612a9a602a8361342b565b9150612aa582613ad1565b604082019050919050565b6000612abd60298361342b565b9150612ac882613b20565b604082019050919050565b6000612ae0602e8361342b565b9150612aeb82613b6f565b604082019050919050565b6000612b0360048361343c565b9150612b0e82613bbe565b600482019050919050565b6000612b2660028361343c565b9150612b3182613be7565b600282019050919050565b6000612b4960208361342b565b9150612b5482613c10565b602082019050919050565b6000612b6c60318361342b565b9150612b7782613c39565b604082019050919050565b6000612b8f60058361343c565b9150612b9a82613c88565b600582019050919050565b6000612bb2602c8361342b565b9150612bbd82613cb1565b604082019050919050565b6000612bd560298361342b565b9150612be082613d00565b604082019050919050565b6000612bf8602f8361342b565b9150612c0382613d4f565b604082019050919050565b6000612c1b600a8361343c565b9150612c2682613d9e565b600a82019050919050565b6000612c3e60018361343c565b9150612c4982613dc7565b600182019050919050565b6000612c6160218361342b565b9150612c6c82613df0565b604082019050919050565b6000612c84601d8361343c565b9150612c8f82613e3f565b601d82019050919050565b6000612ca760318361342b565b9150612cb282613e68565b604082019050919050565b6000612cca600b8361343c565b9150612cd582613eb7565b600b82019050919050565b6000612ced60468361343c565b9150612cf882613ee0565b604682019050919050565b6000612d1060048361343c565b9150612d1b82613f55565b600482019050919050565b6000612d3360288361343c565b9150612d3e82613f7e565b602882019050919050565b6000612d5660058361343c565b9150612d6182613fcd565b600582019050919050565b6000612d7960208361343c565b9150612d8482613ff6565b602082019050919050565b6000612d9c601e8361343c565b9150612da78261401f565b601e82019050919050565b612dbb816135fd565b82525050565b6000612dcd828461285c565b915081905092915050565b6000612de4828561285c565b9150612df0828461285c565b91508190509392505050565b6000612e08828661285c565b9150612e1382612a47565b9150612e1f828561285c565b9150612e2a82612af6565b9150612e36828461285c565b9150819050949350505050565b6000612e4f828661288d565b9150612e5b828561285c565b9150612e67828461288d565b9150819050949350505050565b6000612e80828961288d565b9150612e8c828861285c565b9150612e98828761288d565b9150612ea4828661288d565b9150612eb0828561285c565b9150612ebc828461288d565b9150819050979650505050505050565b6000612ed782612998565b9150612ee3828461285c565b915081905092915050565b6000612ef982612a24565b9150612f0482612d8f565b9150612f10828561285c565b9150612f1b82612d03565b9150612f2682612d26565b9150612f3182612d6c565b9150612f3d828461285c565b9150612f4882612d03565b9150612f5382612975565b91508190509392505050565b6000612f6a82612b82565b9150612f76828461285c565b915081905092915050565b6000612f8c82612c0e565b9150612f98828661285c565b9150612fa38261290c565b9150612faf828561285c565b9150612fba82612ce0565b9150612fc6828461285c565b9150612fd182612b19565b9150819050949350505050565b6000612fe982612c31565b9150612ff5828461285c565b915081905092915050565b600061300b82612c77565b9150613017828461285c565b915081905092915050565b600061302d82612cbd565b9150613039828461285c565b915081905092915050565b600061304f82612d49565b915061305b828561285c565b9150613067828461285c565b91508190509392505050565b600060208201905061308860008301846127cc565b92915050565b60006080820190506130a360008301876127cc565b6130b060208301866127cc565b6130bd6040830185612db2565b81810360608301526130cf81846127ea565b905095945050505050565b60006040820190506130ef60008301856127cc565b6130fc6020830184612db2565b9392505050565b600060208201905061311860008301846127db565b92915050565b600060208201905081810360008301526131388184612823565b905092915050565b6000606082019050818103600083015261315a8186612823565b90506131696020830185612db2565b61317660408301846127cc565b949350505050565b600060208201905081810360008301526131978161292f565b9050919050565b600060208201905081810360008301526131b781612952565b9050919050565b600060208201905081810360008301526131d7816129bb565b9050919050565b600060208201905081810360008301526131f7816129de565b9050919050565b6000602082019050818103600083015261321781612a01565b9050919050565b6000602082019050818103600083015261323781612a6a565b9050919050565b6000602082019050818103600083015261325781612a8d565b9050919050565b6000602082019050818103600083015261327781612ab0565b9050919050565b6000602082019050818103600083015261329781612ad3565b9050919050565b600060208201905081810360008301526132b781612b3c565b9050919050565b600060208201905081810360008301526132d781612b5f565b9050919050565b600060208201905081810360008301526132f781612ba5565b9050919050565b6000602082019050818103600083015261331781612bc8565b9050919050565b6000602082019050818103600083015261333781612beb565b9050919050565b6000602082019050818103600083015261335781612c54565b9050919050565b6000602082019050818103600083015261337781612c9a565b9050919050565b60006020820190506133936000830184612db2565b92915050565b60006133a36133b4565b90506133af82826136b2565b919050565b6000604051905090565b600067ffffffffffffffff8211156133d9576133d86137ea565b5b6133e282613819565b9050602081019050919050565b60008190508160005260206000209050919050565b600081519050919050565b600081519050919050565b600082825260208201905092915050565b600082825260208201905092915050565b600081905092915050565b6000613452826135fd565b915061345d836135fd565b9250827fffffffffffffffffffffffffffffffffffffffffffffffffffffffffffffffff038211156134925761349161375d565b5b828201905092915050565b60006134a882613607565b91506134b383613607565b92508260ff038211156134c9576134c861375d565b5b828201905092915050565b60006134df826135fd565b91506134ea836135fd565b9250826134fa576134f961378c565b5b828204905092915050565b6000613510826135fd565b915061351b836135fd565b9250817fffffffffffffffffffffffffffffffffffffffffffffffffffffffffffffffff04831182151516156135545761355361375d565b5b828202905092915050565b600061356a826135fd565b9150613575836135fd565b9250828210156135885761358761375d565b5b828203905092915050565b600061359e826135dd565b9050919050565b60008115159050919050565b60007fffffffff0000000000000000000000000000000000000000000000000000000082169050919050565b600073ffffffffffffffffffffffffffffffffffffffff82169050919050565b6000819050919050565b600060ff82169050919050565b82818337600083830152505050565b60005b83811015613641578082015181840152602081019050613626565b83811115613650576000848401525b50505050565b6000613661826135fd565b915060008214156136755761367461375d565b5b600182039050919050565b6000600282049050600182168061369857607f821691505b602082108114156136ac576136ab6137bb565b5b50919050565b6136bb82613819565b810181811067ffffffffffffffff821117156136da576136d96137ea565b5b80604052505050565b60006136ee826135fd565b91507fffffffffffffffffffffffffffffffffffffffffffffffffffffffffffffffff8214156137215761372061375d565b5b600182019050919050565b6000613737826135fd565b9150613742836135fd565b9250826137525761375161378c565b5b828206905092915050565b7f4e487b7100000000000000000000000000000000000000000000000000000000600052601160045260246000fd5b7f4e487b7100000000000000000000000000000000000000000000000000000000600052601260045260246000fd5b7f4e487b7100000000000000000000000000000000000000000000000000000000600052602260045260246000fd5b7f4e487b7100000000000000000000000000000000000000000000000000000000600052604160045260246000fd5b6000601f19601f8301169050919050565b7f222c20226465736372697074696f6e223a202200000000000000000000000000600082015250565b7f4552433732313a207472616e7366657220746f206e6f6e20455243373231526560008201527f63656976657220696d706c656d656e7465720000000000000000000000000000602082015250565b7f4552433732313a20746f6b656e20616c7265616479206d696e74656400000000600082015250565b7f3c2f6c696e6561724772616469656e743e3c2f646566733e0000000000000000600082015250565b7f46495253545f4e414d4500000000000000000000000000000000000000000000600082015250565b7f4552433732313a207472616e7366657220746f20746865207a65726f2061646460008201527f7265737300000000000000000000000000000000000000000000000000000000602082015250565b7f4552433732313a20617070726f766520746f2063616c6c657200000000000000600082015250565b7f4552433732313a206f70657261746f7220717565727920666f72206e6f6e657860008201527f697374656e7420746f6b656e0000000000000000000000000000000000000000602082015250565b7f3c646566733e3c6c696e6561724772616469656e742069643d2747726164696560008201527f6e7431272078313d2730272078323d2730272079313d2730272079323d27312760208201527f3e00000000000000000000000000000000000000000000000000000000000000604082015250565b7f2000000000000000000000000000000000000000000000000000000000000000600082015250565b7f4552433732313a20617070726f76652063616c6c6572206973206e6f74206f7760008201527f6e6572206e6f7220617070726f76656420666f7220616c6c0000000000000000602082015250565b7f4552433732313a2062616c616e636520717565727920666f7220746865207a6560008201527f726f206164647265737300000000000000000000000000000000000000000000602082015250565b7f4552433732313a206f776e657220717565727920666f72206e6f6e657869737460008201527f656e7420746f6b656e0000000000000000000000000000000000000000000000602082015250565b7f45524337323155524953746f726167653a2055524920736574206f66206e6f6e60008201527f6578697374656e7420746f6b656e000000000000000000000000000000000000602082015250565b7f206f662000000000000000000000000000000000000000000000000000000000600082015250565b7f227d000000000000000000000000000000000000000000000000000000000000600082015250565b7f4552433732313a206d696e7420746f20746865207a65726f2061646472657373600082015250565b7f45524337323155524953746f726167653a2055524920717565727920666f722060008201527f6e6f6e6578697374656e7420746f6b656e000000000000000000000000000000602082015250565b7f484f555345000000000000000000000000000000000000000000000000000000600082015250565b7f4552433732313a20617070726f76656420717565727920666f72206e6f6e657860008201527f697374656e7420746f6b656e0000000000000000000000000000000000000000602082015250565b7f4552433732313a207472616e73666572206f6620746f6b656e2074686174206960008201527f73206e6f74206f776e0000000000000000000000000000000000000000000000602082015250565b7f4552433732314d657461646174613a2055524920717565727920666f72206e6f60008201527f6e6578697374656e7420746f6b656e0000000000000000000000000000000000602082015250565b7f7b226e616d65223a202200000000000000000000000000000000000000000000600082015250565b7f2300000000000000000000000000000000000000000000000000000000000000600082015250565b7f4552433732313a20617070726f76616c20746f2063757272656e74206f776e6560008201527f7200000000000000000000000000000000000000000000000000000000000000602082015250565b7f646174613a6170706c69636174696f6e2f6a736f6e3b6261736536342c000000600082015250565b7f4552433732313a207472616e736665722063616c6c6572206973206e6f74206f60008201527f776e6572206e6f7220617070726f766564000000000000000000000000000000602082015250565b7f5345434f4e445f4e414d45000000000000000000000000000000000000000000600082015250565b7f206973206120776f6e64657266756c6c79207761636b792077697a617264212260008201527f2c2022696d616765223a2022646174613a696d6167652f7376672b786d6c3b6260208201527f61736536342c0000000000000000000000000000000000000000000000000000604082015250565b7f27202f3e00000000000000000000000000000000000000000000000000000000600082015250565b7f3c73746f70206f66667365743d27353025272073746f702d636f6c6f723d276260008201527f6c61636b27202f3e000000000000000000000000000000000000000000000000602082015250565b7f434f4c4f52000000000000000000000000000000000000000000000000000000600082015250565b7f3c73746f70206f66667365743d2731303025272073746f702d636f6c6f723d27600082015250565b7f3c73746f70206f66667365743d273025272073746f702d636f6c6f723d270000600082015250565b61405181613593565b811461405c57600080fd5b50565b614068816135a5565b811461407357600080fd5b50565b61407f816135b1565b811461408a57600080fd5b50565b614096816135fd565b81146140a157600080fd5b5056fe416e204e465420772f20494420257320686173206265656e206d696e74656420746f2025734142434445464748494a4b4c4d4e4f505152535455565758595a6162636465666768696a6b6c6d6e6f707172737475767778797a303132333435363738392b2fa26469706673582212203a9366696023503ba4cf4a0570192a90352af8b3b69585811e3c1b3fdc20d10264736f6c634300080400333c73766720786d6c6e733d27687474703a2f2f7777772e77332e6f72672f323030302f73766727207072657365727665417370656374526174696f3d27784d696e594d696e206d656574272076696577426f783d273020302033353020333530273e3c726563742077696474683d273130302527206865696768743d2731303025272066696c6c3d2775726c28234772616469656e74312927202f3e3c7374796c653e2e62617365207b2066696c6c3a2077686974653b666f6e742d66616d696c793a2073616e732d73657269663b20666f6e742d73697a653a20313470783b207d203c2f7374796c653e3c7465787420783d273530252720793d273530252720636c6173733d27626173652720646f6d696e616e742d626173656c696e653d276d6964646c652720746578742d616e63686f723d276d6964646c65273e",
  "linkReferences": {},
  "deployedLinkReferences": {}
}